{
  "address": "0x49595B1c51C097E7f26daB6142165BD78D208f3F",
  "abi": [
    {
      "inputs": [
        {
          "internalType": "address",
          "name": "_projectOwner",
          "type": "address"
        },
        {
          "internalType": "string",
          "name": "_projectTitle",
          "type": "string"
        },
        {
          "internalType": "string",
          "name": "_projectDescription",
          "type": "string"
        },
        {
          "internalType": "uint256",
          "name": "_targetAmount",
          "type": "uint256"
        },
        {
          "internalType": "uint256",
          "name": "_deadline",
          "type": "uint256"
        },
        {
          "internalType": "string",
          "name": "_image",
          "type": "string"
        }
      ],
      "name": "createProject",
      "outputs": [
        {
          "internalType": "uint256",
          "name": "",
          "type": "uint256"
        }
      ],
      "stateMutability": "nonpayable",
      "type": "function"
    },
    {
      "inputs": [
        {
          "internalType": "uint256",
          "name": "_projectId",
          "type": "uint256"
        }
      ],
      "name": "donateFunds",
      "outputs": [],
      "stateMutability": "payable",
      "type": "function"
    },
    {
      "inputs": [
        {
          "internalType": "uint256",
          "name": "_projectId",
          "type": "uint256"
        }
      ],
      "name": "getContributions",
      "outputs": [
        {
          "internalType": "uint256[]",
          "name": "",
          "type": "uint256[]"
        }
      ],
      "stateMutability": "view",
      "type": "function"
    },
    {
      "inputs": [
        {
          "internalType": "uint256",
          "name": "_projectId",
          "type": "uint256"
        }
      ],
      "name": "getContributors",
      "outputs": [
        {
          "internalType": "address[]",
          "name": "",
          "type": "address[]"
        }
      ],
      "stateMutability": "view",
      "type": "function"
    },
    {
      "inputs": [],
      "name": "getProjects",
      "outputs": [
        {
          "components": [
            {
              "internalType": "address payable",
              "name": "projectOwner",
              "type": "address"
            },
            {
              "internalType": "string",
              "name": "projectTitle",
              "type": "string"
            },
            {
              "internalType": "string",
              "name": "projectDescription",
              "type": "string"
            },
            {
              "internalType": "string",
              "name": "image",
              "type": "string"
            },
            {
              "internalType": "uint256",
              "name": "targetAmount",
              "type": "uint256"
            },
            {
              "internalType": "uint256",
              "name": "amountRaised",
              "type": "uint256"
            },
            {
              "internalType": "uint256",
              "name": "deadline",
              "type": "uint256"
            },
            {
              "internalType": "uint256",
              "name": "projectId",
              "type": "uint256"
            },
            {
              "internalType": "uint256[]",
              "name": "contributions",
              "type": "uint256[]"
            },
            {
              "internalType": "address[]",
              "name": "contributors",
              "type": "address[]"
            },
            {
              "internalType": "bool",
              "name": "completed",
              "type": "bool"
            }
          ],
          "internalType": "struct PublicGoodsFunding.Project[]",
          "name": "",
          "type": "tuple[]"
        }
      ],
      "stateMutability": "view",
      "type": "function"
    },
    {
      "inputs": [],
      "name": "projectCount",
      "outputs": [
        {
          "internalType": "uint256",
          "name": "",
          "type": "uint256"
        }
      ],
      "stateMutability": "view",
      "type": "function"
    },
    {
      "inputs": [
        {
          "internalType": "uint256",
          "name": "",
          "type": "uint256"
        }
      ],
      "name": "projects",
      "outputs": [
        {
          "internalType": "address payable",
          "name": "projectOwner",
          "type": "address"
        },
        {
          "internalType": "string",
          "name": "projectTitle",
          "type": "string"
        },
        {
          "internalType": "string",
          "name": "projectDescription",
          "type": "string"
        },
        {
          "internalType": "string",
          "name": "image",
          "type": "string"
        },
        {
          "internalType": "uint256",
          "name": "targetAmount",
          "type": "uint256"
        },
        {
          "internalType": "uint256",
          "name": "amountRaised",
          "type": "uint256"
        },
        {
          "internalType": "uint256",
          "name": "deadline",
          "type": "uint256"
        },
        {
          "internalType": "uint256",
          "name": "projectId",
          "type": "uint256"
        },
        {
          "internalType": "bool",
          "name": "completed",
          "type": "bool"
        }
      ],
      "stateMutability": "view",
      "type": "function"
    },
    {
      "inputs": [
        {
          "internalType": "uint256",
          "name": "_projectId",
          "type": "uint256"
        }
      ],
      "name": "withdrawFunds",
      "outputs": [],
      "stateMutability": "payable",
      "type": "function"
    }
  ],
  "transactionHash": "0x3780013a061cd942d54f2a6662937e878491e56fdc5969c85195c3f482a9893f",
  "args": [],
  "numDeployments": 1,
  "solcInputHash": "234c4d62ddfdc8bb51e5cf333015002a",
  "bytecode": "0x6080604052600060015534801561001557600080fd5b506111f9806100256000396000f3fe60806040526004361061007b5760003560e01c8063d05e3cc51161004e578063d05e3cc514610124578063d32521a014610151578063dcc6012814610164578063f64bc5081461018657600080fd5b8063107046bd14610080578063155dd5ee146100be57806336fbad26146100d35780633c1ab00f146100f7575b600080fd5b34801561008c57600080fd5b506100a061009b366004610bdf565b6101a6565b6040516100b599989796959493929190610c3e565b60405180910390f35b6100d16100cc366004610bdf565b610393565b005b3480156100df57600080fd5b506100e960015481565b6040519081526020016100b5565b34801561010357600080fd5b50610117610112366004610bdf565b610537565b6040516100b59190610cbb565b34801561013057600080fd5b5061014461013f366004610bdf565b6105a4565b6040516100b59190610d43565b6100d161015f366004610bdf565b610606565b34801561017057600080fd5b50610179610713565b6040516100b59190610d96565b34801561019257600080fd5b506100e96101a1366004610f69565b610ae7565b600060208190529081526040902080546001820180546001600160a01b0390921692916101d290611022565b80601f01602080910402602001604051908101604052809291908181526020018280546101fe90611022565b801561024b5780601f106102205761010080835404028352916020019161024b565b820191906000526020600020905b81548152906001019060200180831161022e57829003601f168201915b50505050509080600201805461026090611022565b80601f016020809104026020016040519081016040528092919081815260200182805461028c90611022565b80156102d95780601f106102ae576101008083540402835291602001916102d9565b820191906000526020600020905b8154815290600101906020018083116102bc57829003601f168201915b5050505050908060030180546102ee90611022565b80601f016020809104026020016040519081016040528092919081815260200182805461031a90611022565b80156103675780601f1061033c57610100808354040283529160200191610367565b820191906000526020600020905b81548152906001019060200180831161034a57829003601f168201915b5050506004840154600585015460068601546007870154600a9097015495969295919450925060ff1689565b60008181526020819052604090205481906001600160a01b031633146104005760405162461bcd60e51b815260206004820152601960248201527f596f7520617265206e6f742070726f6a656374206f776e65720000000000000060448201526064015b60405180910390fd5b600082815260208190526040902060048101546005820154101580610429575080600601544210155b6104895760405162461bcd60e51b815260206004820152602b60248201527f50726f6a6563742066756e64696e6720676f616c732068617665206e6f74206260448201526a19595b881c995858da195960aa1b60648201526084016103f7565b600581015460405160009133918381818185875af1925050503d80600081146104ce576040519150601f19603f3d011682016040523d82523d6000602084013e6104d3565b606091505b50509050806105245760405162461bcd60e51b815260206004820152601860248201527f4661696c656420746f2077697468647261772066756e6473000000000000000060448201526064016103f7565b50600a01805460ff191660011790555050565b6000818152602081815260409182902060090180548351818402810184019094528084526060939283018282801561059857602002820191906000526020600020905b81546001600160a01b0316815260019091019060200180831161057a575b50505050509050919050565b6000818152602081815260409182902060080180548351818402810184019094528084526060939283018282801561059857602002820191906000526020600020905b8154815260200190600101908083116105e75750505050509050919050565b60008181526020819052604090203461066d5760405162461bcd60e51b8152602060048201526024808201527f436f6e747269627574696f6e73206d757374206265206d6f7265207468616e206044820152637a65726f60e01b60648201526084016103f7565b600a81015460ff16156106b95760405162461bcd60e51b8152602060048201526014602482015273141c9bda9958dd081a5cc818dbdb5c1b195d195960621b60448201526064016103f7565b348160050160008282546106cd919061106c565b9091555050600981018054600181810183556000928352602080842090920180546001600160a01b03191633179055600890930180549384018155825290203491015550565b6060600060015467ffffffffffffffff81111561073257610732610ec6565b6040519080825280602002602001820160405280156107cb57816020015b6107b860405180610160016040528060006001600160a01b031681526020016060815260200160608152602001606081526020016000815260200160008152602001600081526020016000815260200160608152602001606081526020016000151581525090565b8152602001906001900390816107505790505b50905060005b600154811015610ae157600081815260208181526040918290208251610160810190935280546001600160a01b03168352600181018054919284019161081690611022565b80601f016020809104026020016040519081016040528092919081815260200182805461084290611022565b801561088f5780601f106108645761010080835404028352916020019161088f565b820191906000526020600020905b81548152906001019060200180831161087257829003601f168201915b505050505081526020016002820180546108a890611022565b80601f01602080910402602001604051908101604052809291908181526020018280546108d490611022565b80156109215780601f106108f657610100808354040283529160200191610921565b820191906000526020600020905b81548152906001019060200180831161090457829003601f168201915b5050505050815260200160038201805461093a90611022565b80601f016020809104026020016040519081016040528092919081815260200182805461096690611022565b80156109b35780601f10610988576101008083540402835291602001916109b3565b820191906000526020600020905b81548152906001019060200180831161099657829003601f168201915b505050505081526020016004820154815260200160058201548152602001600682015481526020016007820154815260200160088201805480602002602001604051908101604052809291908181526020018280548015610a3357602002820191906000526020600020905b815481526020019060010190808311610a1f575b5050505050815260200160098201805480602002602001604051908101604052809291908181526020018280548015610a9557602002820191906000526020600020905b81546001600160a01b03168152600190910190602001808311610a77575b5050509183525050600a919091015460ff1615156020909101528251839083908110610ac357610ac3611085565b60200260200101819052508080610ad99061109b565b9150506107d1565b50919050565b6001546000908152602081905260408120428411610b525760405162461bcd60e51b815260206004820152602260248201527f446561646c696e65206d7573742062652073657420696e207468652066757475604482015261726560f01b60648201526084016103f7565b80546001600160a01b031916339081178255975060018101610b748882611103565b5060028101610b838782611103565b50600481018590556006810184905560038101610ba08482611103565b50600060058201819055600a8201805460ff19169055600180546007840181905591610bcb8361109b565b909155505060015498975050505050505050565b600060208284031215610bf157600080fd5b5035919050565b6000815180845260005b81811015610c1e57602081850181015186830182015201610c02565b506000602082860101526020601f19601f83011685010191505092915050565b6001600160a01b038a16815261012060208201819052600090610c638382018c610bf8565b90508281036040840152610c77818b610bf8565b90508281036060840152610c8b818a610bf8565b6080840198909852505060a081019490945260c084019290925260e0830152151561010090910152949350505050565b6020808252825182820181905260009190848201906040850190845b81811015610cfc5783516001600160a01b031683529284019291840191600101610cd7565b50909695505050505050565b600081518084526020808501945080840160005b83811015610d3857815187529582019590820190600101610d1c565b509495945050505050565b602081526000610d566020830184610d08565b9392505050565b600081518084526020808501945080840160005b83811015610d385781516001600160a01b031687529582019590820190600101610d71565b60006020808301818452808551808352604092508286019150828160051b87010184880160005b83811015610eb857888303603f19018552815180516001600160a01b0316845261016088820151818a870152610df582870182610bf8565b9150508782015185820389870152610e0d8282610bf8565b91505060608083015186830382880152610e278382610bf8565b6080858101519089015260a0808601519089015260c0808601519089015260e0808601519089015261010080860151898303828b015291945092509050610e6e8382610d08565b925050506101208083015186830382880152610e8a8382610d5d565b92505050610140808301519250610ea48187018415159052565b509588019593505090860190600101610dbd565b509098975050505050505050565b634e487b7160e01b600052604160045260246000fd5b600082601f830112610eed57600080fd5b813567ffffffffffffffff80821115610f0857610f08610ec6565b604051601f8301601f19908116603f01168101908282118183101715610f3057610f30610ec6565b81604052838152866020858801011115610f4957600080fd5b836020870160208301376000602085830101528094505050505092915050565b60008060008060008060c08789031215610f8257600080fd5b86356001600160a01b0381168114610f9957600080fd5b9550602087013567ffffffffffffffff80821115610fb657600080fd5b610fc28a838b01610edc565b96506040890135915080821115610fd857600080fd5b610fe48a838b01610edc565b9550606089013594506080890135935060a089013591508082111561100857600080fd5b5061101589828a01610edc565b9150509295509295509295565b600181811c9082168061103657607f821691505b602082108103610ae157634e487b7160e01b600052602260045260246000fd5b634e487b7160e01b600052601160045260246000fd5b8082018082111561107f5761107f611056565b92915050565b634e487b7160e01b600052603260045260246000fd5b6000600182016110ad576110ad611056565b5060010190565b601f8211156110fe57600081815260208120601f850160051c810160208610156110db5750805b601f850160051c820191505b818110156110fa578281556001016110e7565b5050505b505050565b815167ffffffffffffffff81111561111d5761111d610ec6565b6111318161112b8454611022565b846110b4565b602080601f831160018114611166576000841561114e5750858301515b600019600386901b1c1916600185901b1785556110fa565b600085815260208120601f198616915b8281101561119557888601518255948401946001909101908401611176565b50858210156111b35787850151600019600388901b60f8161c191681555b5050505050600190811b0190555056fea264697066735822122079a769d2afca0d32300e86b7d4874b6949b7359c9f5e1d58783dba5cca8251c564736f6c63430008140033",
  "devdoc": {
    "kind": "dev",
    "methods": {},
    "version": 1
  },
  "userdoc": {
    "kind": "user",
    "methods": {},
    "version": 1
  },
  "storageLayout": {
    "storage": [
      {
        "astId": 2641,
        "contract": "contracts/PublicGoodsFunding.sol:PublicGoodsFunding",
        "label": "projects",
        "offset": 0,
        "slot": "0",
        "type": "t_mapping(t_uint256,t_struct(Project)2636_storage)"
      },
      {
        "astId": 2644,
        "contract": "contracts/PublicGoodsFunding.sol:PublicGoodsFunding",
        "label": "projectCount",
        "offset": 0,
        "slot": "1",
        "type": "t_uint256"
      }
    ],
    "types": {
      "t_address": {
        "encoding": "inplace",
        "label": "address",
        "numberOfBytes": "20"
      },
      "t_address_payable": {
        "encoding": "inplace",
        "label": "address payable",
        "numberOfBytes": "20"
      },
      "t_array(t_address)dyn_storage": {
        "base": "t_address",
        "encoding": "dynamic_array",
        "label": "address[]",
        "numberOfBytes": "32"
      },
      "t_array(t_uint256)dyn_storage": {
        "base": "t_uint256",
        "encoding": "dynamic_array",
        "label": "uint256[]",
        "numberOfBytes": "32"
      },
      "t_bool": {
        "encoding": "inplace",
        "label": "bool",
        "numberOfBytes": "1"
      },
      "t_mapping(t_uint256,t_struct(Project)2636_storage)": {
        "encoding": "mapping",
        "key": "t_uint256",
        "label": "mapping(uint256 => struct PublicGoodsFunding.Project)",
        "numberOfBytes": "32",
        "value": "t_struct(Project)2636_storage"
      },
      "t_string_storage": {
        "encoding": "bytes",
        "label": "string",
        "numberOfBytes": "32"
      },
      "t_struct(Project)2636_storage": {
        "encoding": "inplace",
        "label": "struct PublicGoodsFunding.Project",
        "members": [
          {
            "astId": 2613,
            "contract": "contracts/PublicGoodsFunding.sol:PublicGoodsFunding",
            "label": "projectOwner",
            "offset": 0,
            "slot": "0",
            "type": "t_address_payable"
          },
          {
            "astId": 2615,
            "contract": "contracts/PublicGoodsFunding.sol:PublicGoodsFunding",
            "label": "projectTitle",
            "offset": 0,
            "slot": "1",
            "type": "t_string_storage"
          },
          {
            "astId": 2617,
            "contract": "contracts/PublicGoodsFunding.sol:PublicGoodsFunding",
            "label": "projectDescription",
            "offset": 0,
            "slot": "2",
            "type": "t_string_storage"
          },
          {
            "astId": 2619,
            "contract": "contracts/PublicGoodsFunding.sol:PublicGoodsFunding",
            "label": "image",
            "offset": 0,
            "slot": "3",
            "type": "t_string_storage"
          },
          {
            "astId": 2621,
            "contract": "contracts/PublicGoodsFunding.sol:PublicGoodsFunding",
            "label": "targetAmount",
            "offset": 0,
            "slot": "4",
            "type": "t_uint256"
          },
          {
            "astId": 2623,
            "contract": "contracts/PublicGoodsFunding.sol:PublicGoodsFunding",
            "label": "amountRaised",
            "offset": 0,
            "slot": "5",
            "type": "t_uint256"
          },
          {
            "astId": 2625,
            "contract": "contracts/PublicGoodsFunding.sol:PublicGoodsFunding",
            "label": "deadline",
            "offset": 0,
            "slot": "6",
            "type": "t_uint256"
          },
          {
            "astId": 2627,
            "contract": "contracts/PublicGoodsFunding.sol:PublicGoodsFunding",
            "label": "projectId",
            "offset": 0,
            "slot": "7",
            "type": "t_uint256"
          },
          {
            "astId": 2630,
            "contract": "contracts/PublicGoodsFunding.sol:PublicGoodsFunding",
            "label": "contributions",
            "offset": 0,
            "slot": "8",
            "type": "t_array(t_uint256)dyn_storage"
          },
          {
            "astId": 2633,
            "contract": "contracts/PublicGoodsFunding.sol:PublicGoodsFunding",
            "label": "contributors",
            "offset": 0,
            "slot": "9",
            "type": "t_array(t_address)dyn_storage"
          },
          {
            "astId": 2635,
            "contract": "contracts/PublicGoodsFunding.sol:PublicGoodsFunding",
            "label": "completed",
            "offset": 0,
            "slot": "10",
            "type": "t_bool"
          }
        ],
        "numberOfBytes": "352"
      },
      "t_uint256": {
        "encoding": "inplace",
        "label": "uint256",
        "numberOfBytes": "32"
      }
    }
  }
}